{
  "contractName": "Marketplace",
  "abi": [
    {
      "constant": true,
      "inputs": [],
      "name": "name",
      "outputs": [
        {
          "name": "",
          "type": "string"
        }
      ],
      "payable": false,
      "stateMutability": "view",
      "type": "function"
    },
    {
      "constant": true,
      "inputs": [
        {
          "name": "",
          "type": "uint256"
        }
      ],
      "name": "isOfferBidRefused",
      "outputs": [
        {
          "name": "",
          "type": "bool"
        }
      ],
      "payable": false,
      "stateMutability": "view",
      "type": "function"
    },
    {
      "constant": true,
      "inputs": [
        {
          "name": "",
          "type": "uint256"
        }
      ],
      "name": "orderHasCourier",
      "outputs": [
        {
          "name": "",
          "type": "bool"
        }
      ],
      "payable": false,
      "stateMutability": "view",
      "type": "function"
    },
    {
      "constant": true,
      "inputs": [
        {
          "name": "",
          "type": "uint256"
        }
      ],
      "name": "isDeliveryCancelled",
      "outputs": [
        {
          "name": "",
          "type": "bool"
        }
      ],
      "payable": false,
      "stateMutability": "view",
      "type": "function"
    },
    {
      "constant": true,
      "inputs": [],
      "name": "totalSupply",
      "outputs": [
        {
          "name": "",
          "type": "uint256"
        }
      ],
      "payable": false,
      "stateMutability": "view",
      "type": "function"
    },
    {
      "constant": true,
      "inputs": [],
      "name": "lastOfferBidId",
      "outputs": [
        {
          "name": "",
          "type": "uint256"
        }
      ],
      "payable": false,
      "stateMutability": "view",
      "type": "function"
    },
    {
      "constant": false,
      "inputs": [
        {
          "name": "from",
          "type": "address"
        },
        {
          "name": "to",
          "type": "address"
        },
        {
          "name": "value",
          "type": "uint256"
        }
      ],
      "name": "transferFrom",
      "outputs": [
        {
          "name": "",
          "type": "bool"
        }
      ],
      "payable": false,
      "stateMutability": "nonpayable",
      "type": "function"
    },
    {
      "constant": true,
      "inputs": [],
      "name": "decimals",
      "outputs": [
        {
          "name": "",
          "type": "uint8"
        }
      ],
      "payable": false,
      "stateMutability": "view",
      "type": "function"
    },
    {
      "constant": true,
      "inputs": [
        {
          "name": "",
          "type": "uint256"
        }
      ],
      "name": "orderHasFinished",
      "outputs": [
        {
          "name": "",
          "type": "bool"
        }
      ],
      "payable": false,
      "stateMutability": "view",
      "type": "function"
    },
    {
      "constant": true,
      "inputs": [
        {
          "name": "",
          "type": "uint256"
        }
      ],
      "name": "isOfferBidAccepted",
      "outputs": [
        {
          "name": "",
          "type": "bool"
        }
      ],
      "payable": false,
      "stateMutability": "view",
      "type": "function"
    },
    {
      "constant": true,
      "inputs": [
        {
          "name": "",
          "type": "uint256"
        }
      ],
      "name": "orderCourierBidAcceptedByBuyer",
      "outputs": [
        {
          "name": "",
          "type": "bool"
        }
      ],
      "payable": false,
      "stateMutability": "view",
      "type": "function"
    },
    {
      "constant": true,
      "inputs": [],
      "name": "lastOrderId",
      "outputs": [
        {
          "name": "",
          "type": "uint256"
        }
      ],
      "payable": false,
      "stateMutability": "view",
      "type": "function"
    },
    {
      "constant": true,
      "inputs": [],
      "name": "lastOfferId",
      "outputs": [
        {
          "name": "",
          "type": "uint256"
        }
      ],
      "payable": false,
      "stateMutability": "view",
      "type": "function"
    },
    {
      "constant": true,
      "inputs": [
        {
          "name": "",
          "type": "uint256"
        }
      ],
      "name": "deliveryConfirmedByBuyer",
      "outputs": [
        {
          "name": "",
          "type": "bool"
        }
      ],
      "payable": false,
      "stateMutability": "view",
      "type": "function"
    },
    {
      "constant": true,
      "inputs": [
        {
          "name": "",
          "type": "address"
        }
      ],
      "name": "balanceOf",
      "outputs": [
        {
          "name": "",
          "type": "uint256"
        }
      ],
      "payable": false,
      "stateMutability": "view",
      "type": "function"
    },
    {
      "constant": true,
      "inputs": [
        {
          "name": "",
          "type": "uint256"
        }
      ],
      "name": "isOfferStanding",
      "outputs": [
        {
          "name": "",
          "type": "bool"
        }
      ],
      "payable": false,
      "stateMutability": "view",
      "type": "function"
    },
    {
      "constant": true,
      "inputs": [
        {
          "name": "",
          "type": "uint256"
        }
      ],
      "name": "orderCourierBidRefused",
      "outputs": [
        {
          "name": "",
          "type": "bool"
        }
      ],
      "payable": false,
      "stateMutability": "view",
      "type": "function"
    },
    {
      "constant": false,
      "inputs": [
        {
          "name": "account",
          "type": "address"
        }
      ],
      "name": "unfreezeAccount",
      "outputs": [
        {
          "name": "",
          "type": "bool"
        }
      ],
      "payable": false,
      "stateMutability": "nonpayable",
      "type": "function"
    },
    {
      "constant": false,
      "inputs": [
        {
          "name": "from",
          "type": "address"
        },
        {
          "name": "value",
          "type": "uint256"
        }
      ],
      "name": "burnFrom",
      "outputs": [
        {
          "name": "",
          "type": "bool"
        }
      ],
      "payable": false,
      "stateMutability": "nonpayable",
      "type": "function"
    },
    {
      "constant": true,
      "inputs": [
        {
          "name": "",
          "type": "uint256"
        }
      ],
      "name": "products",
      "outputs": [
        {
          "name": "id",
          "type": "uint256"
        },
        {
          "name": "owner",
          "type": "address"
        },
        {
          "name": "name",
          "type": "string"
        },
        {
          "name": "unitPrice",
          "type": "uint256"
        },
        {
          "name": "timestamp",
          "type": "uint256"
        }
      ],
      "payable": false,
      "stateMutability": "view",
      "type": "function"
    },
    {
      "constant": true,
      "inputs": [
        {
          "name": "",
          "type": "uint256"
        }
      ],
      "name": "offers",
      "outputs": [
        {
          "name": "id",
          "type": "uint256"
        },
        {
          "name": "productId",
          "type": "uint256"
        },
        {
          "name": "seller",
          "type": "address"
        },
        {
          "name": "proposedUnitPrice",
          "type": "uint256"
        },
        {
          "name": "quantity",
          "type": "uint256"
        },
        {
          "name": "timestamp",
          "type": "uint256"
        }
      ],
      "payable": false,
      "stateMutability": "view",
      "type": "function"
    },
    {
      "constant": true,
      "inputs": [],
      "name": "owner",
      "outputs": [
        {
          "name": "",
          "type": "address"
        }
      ],
      "payable": false,
      "stateMutability": "view",
      "type": "function"
    },
    {
      "constant": true,
      "inputs": [],
      "name": "lastProductId",
      "outputs": [
        {
          "name": "",
          "type": "uint256"
        }
      ],
      "payable": false,
      "stateMutability": "view",
      "type": "function"
    },
    {
      "constant": true,
      "inputs": [],
      "name": "symbol",
      "outputs": [
        {
          "name": "",
          "type": "string"
        }
      ],
      "payable": false,
      "stateMutability": "view",
      "type": "function"
    },
    {
      "constant": true,
      "inputs": [
        {
          "name": "",
          "type": "uint256"
        }
      ],
      "name": "orders",
      "outputs": [
        {
          "name": "id",
          "type": "uint256"
        },
        {
          "name": "offerBidId",
          "type": "uint256"
        },
        {
          "name": "offerId",
          "type": "uint256"
        },
        {
          "name": "seller",
          "type": "address"
        },
        {
          "name": "buyer",
          "type": "address"
        },
        {
          "name": "agreedUnitPrice",
          "type": "uint256"
        },
        {
          "name": "quantity",
          "type": "uint256"
        },
        {
          "name": "timestamp",
          "type": "uint256"
        }
      ],
      "payable": false,
      "stateMutability": "view",
      "type": "function"
    },
    {
      "constant": false,
      "inputs": [
        {
          "name": "to",
          "type": "address"
        },
        {
          "name": "value",
          "type": "uint256"
        }
      ],
      "name": "transfer",
      "outputs": [
        {
          "name": "",
          "type": "bool"
        }
      ],
      "payable": false,
      "stateMutability": "nonpayable",
      "type": "function"
    },
    {
      "constant": true,
      "inputs": [
        {
          "name": "",
          "type": "uint256"
        }
      ],
      "name": "deliveries",
      "outputs": [
        {
          "name": "id",
          "type": "uint256"
        },
        {
          "name": "orderCourierBidId",
          "type": "uint256"
        },
        {
          "name": "orderId",
          "type": "uint256"
        },
        {
          "name": "courier",
          "type": "address"
        },
        {
          "name": "price",
          "type": "uint256"
        },
        {
          "name": "timestamp",
          "type": "uint256"
        }
      ],
      "payable": false,
      "stateMutability": "view",
      "type": "function"
    },
    {
      "constant": true,
      "inputs": [
        {
          "name": "",
          "type": "uint256"
        }
      ],
      "name": "isDeliveryPending",
      "outputs": [
        {
          "name": "",
          "type": "bool"
        }
      ],
      "payable": false,
      "stateMutability": "view",
      "type": "function"
    },
    {
      "constant": true,
      "inputs": [
        {
          "name": "",
          "type": "uint256"
        }
      ],
      "name": "orderCourierBidAcceptedBySeller",
      "outputs": [
        {
          "name": "",
          "type": "bool"
        }
      ],
      "payable": false,
      "stateMutability": "view",
      "type": "function"
    },
    {
      "constant": true,
      "inputs": [
        {
          "name": "",
          "type": "uint256"
        }
      ],
      "name": "orderCourierBids",
      "outputs": [
        {
          "name": "id",
          "type": "uint256"
        },
        {
          "name": "orderId",
          "type": "uint256"
        },
        {
          "name": "courier",
          "type": "address"
        },
        {
          "name": "price",
          "type": "uint256"
        },
        {
          "name": "timestamp",
          "type": "uint256"
        }
      ],
      "payable": false,
      "stateMutability": "view",
      "type": "function"
    },
    {
      "constant": true,
      "inputs": [],
      "name": "lastDeliveryId",
      "outputs": [
        {
          "name": "",
          "type": "uint256"
        }
      ],
      "payable": false,
      "stateMutability": "view",
      "type": "function"
    },
    {
      "constant": true,
      "inputs": [
        {
          "name": "",
          "type": "uint256"
        }
      ],
      "name": "deliveryConfirmedByCourier",
      "outputs": [
        {
          "name": "",
          "type": "bool"
        }
      ],
      "payable": false,
      "stateMutability": "view",
      "type": "function"
    },
    {
      "constant": true,
      "inputs": [
        {
          "name": "",
          "type": "address"
        }
      ],
      "name": "tokensAtStake",
      "outputs": [
        {
          "name": "",
          "type": "uint256"
        }
      ],
      "payable": false,
      "stateMutability": "view",
      "type": "function"
    },
    {
      "constant": true,
      "inputs": [],
      "name": "lastOrderCourierBidId",
      "outputs": [
        {
          "name": "",
          "type": "uint256"
        }
      ],
      "payable": false,
      "stateMutability": "view",
      "type": "function"
    },
    {
      "constant": true,
      "inputs": [
        {
          "name": "",
          "type": "uint256"
        }
      ],
      "name": "offerAvailableQuantity",
      "outputs": [
        {
          "name": "",
          "type": "uint256"
        }
      ],
      "payable": false,
      "stateMutability": "view",
      "type": "function"
    },
    {
      "constant": true,
      "inputs": [
        {
          "name": "",
          "type": "address"
        }
      ],
      "name": "isAccountFrozen",
      "outputs": [
        {
          "name": "",
          "type": "bool"
        }
      ],
      "payable": false,
      "stateMutability": "view",
      "type": "function"
    },
    {
      "constant": true,
      "inputs": [
        {
          "name": "",
          "type": "uint256"
        }
      ],
      "name": "offersBid",
      "outputs": [
        {
          "name": "id",
          "type": "uint256"
        },
        {
          "name": "offerId",
          "type": "uint256"
        },
        {
          "name": "bider",
          "type": "address"
        },
        {
          "name": "proposedUnitPrice",
          "type": "uint256"
        },
        {
          "name": "quantity",
          "type": "uint256"
        },
        {
          "name": "timestamp",
          "type": "uint256"
        }
      ],
      "payable": false,
      "stateMutability": "view",
      "type": "function"
    },
    {
      "constant": false,
      "inputs": [
        {
          "name": "account",
          "type": "address"
        }
      ],
      "name": "freezeAccount",
      "outputs": [
        {
          "name": "",
          "type": "bool"
        }
      ],
      "payable": false,
      "stateMutability": "nonpayable",
      "type": "function"
    },
    {
      "inputs": [],
      "payable": false,
      "stateMutability": "nonpayable",
      "type": "constructor"
    },
    {
      "anonymous": false,
      "inputs": [
        {
          "indexed": false,
          "name": "id",
          "type": "uint256"
        }
      ],
      "name": "ProductRegistered",
      "type": "event"
    },
    {
      "anonymous": false,
      "inputs": [
        {
          "indexed": false,
          "name": "id",
          "type": "uint256"
        }
      ],
      "name": "OfferRegistered",
      "type": "event"
    },
    {
      "anonymous": false,
      "inputs": [
        {
          "indexed": false,
          "name": "id",
          "type": "uint256"
        },
        {
          "indexed": false,
          "name": "totalValue",
          "type": "uint256"
        }
      ],
      "name": "OfferBidRegistered",
      "type": "event"
    },
    {
      "anonymous": false,
      "inputs": [
        {
          "indexed": false,
          "name": "id",
          "type": "uint256"
        },
        {
          "indexed": false,
          "name": "totalValue",
          "type": "uint256"
        }
      ],
      "name": "OrderRegistered",
      "type": "event"
    },
    {
      "anonymous": false,
      "inputs": [
        {
          "indexed": false,
          "name": "id",
          "type": "uint256"
        },
        {
          "indexed": false,
          "name": "courier",
          "type": "address"
        },
        {
          "indexed": false,
          "name": "price",
          "type": "uint256"
        }
      ],
      "name": "OrderCourierBidRegistered",
      "type": "event"
    },
    {
      "anonymous": false,
      "inputs": [
        {
          "indexed": false,
          "name": "id",
          "type": "uint256"
        },
        {
          "indexed": false,
          "name": "orderCourierBidId",
          "type": "uint256"
        },
        {
          "indexed": false,
          "name": "courier",
          "type": "address"
        },
        {
          "indexed": false,
          "name": "price",
          "type": "uint256"
        }
      ],
      "name": "DeliveryRegistered",
      "type": "event"
    },
    {
      "anonymous": false,
      "inputs": [
        {
          "indexed": false,
          "name": "id",
          "type": "uint256"
        }
      ],
      "name": "OfferBidRefused",
      "type": "event"
    },
    {
      "anonymous": false,
      "inputs": [
        {
          "indexed": false,
          "name": "id",
          "type": "uint256"
        }
      ],
      "name": "OrderCourierBidRefused",
      "type": "event"
    },
    {
      "anonymous": false,
      "inputs": [
        {
          "indexed": false,
          "name": "id",
          "type": "uint256"
        }
      ],
      "name": "OrderCourierBidAcceptedBySeller",
      "type": "event"
    },
    {
      "anonymous": false,
      "inputs": [
        {
          "indexed": false,
          "name": "id",
          "type": "uint256"
        }
      ],
      "name": "OrderCourierBidAcceptedByBuyer",
      "type": "event"
    },
    {
      "anonymous": false,
      "inputs": [
        {
          "indexed": false,
          "name": "id",
          "type": "uint256"
        }
      ],
      "name": "DeliveryConfirmedByCourier",
      "type": "event"
    },
    {
      "anonymous": false,
      "inputs": [
        {
          "indexed": false,
          "name": "id",
          "type": "uint256"
        }
      ],
      "name": "DeliveryConfirmedByBuyer",
      "type": "event"
    },
    {
      "anonymous": false,
      "inputs": [
        {
          "indexed": false,
          "name": "id",
          "type": "uint256"
        }
      ],
      "name": "OrderFinished",
      "type": "event"
    },
    {
      "anonymous": false,
      "inputs": [
        {
          "indexed": false,
          "name": "from",
          "type": "address"
        },
        {
          "indexed": false,
          "name": "to",
          "type": "address"
        },
        {
          "indexed": false,
          "name": "value",
          "type": "uint256"
        }
      ],
      "name": "Transfer",
      "type": "event"
    },
    {
      "anonymous": false,
      "inputs": [
        {
          "indexed": false,
          "name": "from",
          "type": "address"
        },
        {
          "indexed": false,
          "name": "value",
          "type": "uint256"
        }
      ],
      "name": "Burnt",
      "type": "event"
    },
    {
      "anonymous": false,
      "inputs": [
        {
          "indexed": false,
          "name": "account",
          "type": "address"
        }
      ],
      "name": "AccountFrozen",
      "type": "event"
    },
    {
      "anonymous": false,
      "inputs": [
        {
          "indexed": false,
          "name": "account",
          "type": "address"
        }
      ],
      "name": "AccountUnfrozen",
      "type": "event"
    },
    {
      "anonymous": false,
      "inputs": [
        {
          "indexed": false,
          "name": "atemptee",
          "type": "address"
        }
      ],
      "name": "AccessDenied",
      "type": "event"
    },
    {
      "constant": false,
      "inputs": [
        {
          "name": "owner",
          "type": "address"
        },
        {
          "name": "name",
          "type": "string"
        },
        {
          "name": "unitPrice",
          "type": "uint256"
        }
      ],
      "name": "registerProductFrom",
      "outputs": [
        {
          "name": "",
          "type": "uint256"
        }
      ],
      "payable": false,
      "stateMutability": "nonpayable",
      "type": "function"
    },
    {
      "constant": false,
      "inputs": [
        {
          "name": "seller",
          "type": "address"
        },
        {
          "name": "productId",
          "type": "uint256"
        },
        {
          "name": "proposedUnitPrice",
          "type": "uint256"
        },
        {
          "name": "quantity",
          "type": "uint256"
        }
      ],
      "name": "registerOfferFrom",
      "outputs": [
        {
          "name": "",
          "type": "uint256"
        }
      ],
      "payable": false,
      "stateMutability": "nonpayable",
      "type": "function"
    },
    {
      "constant": false,
      "inputs": [
        {
          "name": "bider",
          "type": "address"
        },
        {
          "name": "offerId",
          "type": "uint256"
        },
        {
          "name": "proposedUnitPrice",
          "type": "uint256"
        },
        {
          "name": "quantity",
          "type": "uint256"
        }
      ],
      "name": "registerOfferBidFrom",
      "outputs": [
        {
          "name": "",
          "type": "uint256"
        }
      ],
      "payable": false,
      "stateMutability": "nonpayable",
      "type": "function"
    },
    {
      "constant": false,
      "inputs": [
        {
          "name": "offerBidId",
          "type": "uint256"
        }
      ],
      "name": "refuseOfferBid",
      "outputs": [
        {
          "name": "",
          "type": "bool"
        }
      ],
      "payable": false,
      "stateMutability": "nonpayable",
      "type": "function"
    },
    {
      "constant": false,
      "inputs": [
        {
          "name": "offerBidId",
          "type": "uint256"
        }
      ],
      "name": "acceptOfferBid",
      "outputs": [
        {
          "name": "",
          "type": "uint256"
        }
      ],
      "payable": false,
      "stateMutability": "nonpayable",
      "type": "function"
    },
    {
      "constant": false,
      "inputs": [
        {
          "name": "orderId",
          "type": "uint256"
        },
        {
          "name": "courier",
          "type": "address"
        },
        {
          "name": "price",
          "type": "uint256"
        }
      ],
      "name": "registerOrderCourierBid",
      "outputs": [
        {
          "name": "",
          "type": "uint256"
        }
      ],
      "payable": false,
      "stateMutability": "nonpayable",
      "type": "function"
    },
    {
      "constant": false,
      "inputs": [
        {
          "name": "orderCourierBidId",
          "type": "uint256"
        }
      ],
      "name": "refuseOrderCourierBid",
      "outputs": [
        {
          "name": "",
          "type": "bool"
        }
      ],
      "payable": false,
      "stateMutability": "nonpayable",
      "type": "function"
    },
    {
      "constant": false,
      "inputs": [
        {
          "name": "orderCourierBidId",
          "type": "uint256"
        },
        {
          "name": "seller",
          "type": "address"
        }
      ],
      "name": "acceptOrderCourierBidBySeller",
      "outputs": [
        {
          "name": "",
          "type": "bool"
        }
      ],
      "payable": false,
      "stateMutability": "nonpayable",
      "type": "function"
    },
    {
      "constant": false,
      "inputs": [
        {
          "name": "orderCourierBidId",
          "type": "uint256"
        },
        {
          "name": "buyer",
          "type": "address"
        }
      ],
      "name": "acceptOrderCourierBidByBuyer",
      "outputs": [
        {
          "name": "",
          "type": "bool"
        }
      ],
      "payable": false,
      "stateMutability": "nonpayable",
      "type": "function"
    },
    {
      "constant": false,
      "inputs": [
        {
          "name": "orderCourierBidId",
          "type": "uint256"
        },
        {
          "name": "courier",
          "type": "address"
        }
      ],
      "name": "acceptOrderCourierBidByCourier",
      "outputs": [
        {
          "name": "",
          "type": "uint256"
        }
      ],
      "payable": false,
      "stateMutability": "nonpayable",
      "type": "function"
    },
    {
      "constant": false,
      "inputs": [
        {
          "name": "deliveryId",
          "type": "uint256"
        },
        {
          "name": "courier",
          "type": "address"
        }
      ],
      "name": "confirmDeliveryByCourier",
      "outputs": [
        {
          "name": "",
          "type": "bool"
        }
      ],
      "payable": false,
      "stateMutability": "nonpayable",
      "type": "function"
    },
    {
      "constant": false,
      "inputs": [
        {
          "name": "deliveryId",
          "type": "uint256"
        },
        {
          "name": "buyer",
          "type": "address"
        }
      ],
      "name": "confirmDeliveryByBuyer",
      "outputs": [
        {
          "name": "",
          "type": "bool"
        }
      ],
      "payable": false,
      "stateMutability": "nonpayable",
      "type": "function"
    }
  ],
  "bytecode": "0x60606040526040805190810160405280601181526020017f4d61726b6574706c61636520546f6b656e00000000000000000000000000000081525060019080519060200190620000519291906200032f565b506040805190810160405280600481526020017f4d4b545400000000000000000000000000000000000000000000000000000000815250600290805190602001906200009f9291906200032f565b506012600360006101000a81548160ff021916908360ff160217905550600360009054906101000a900460ff1660ff16600a0a620f4240026004556000600755600060085560006009556000600a556000600b556000600c5534156200010457600080fd5b336000806101000a81548173ffffffffffffffffffffffffffffffffffffffff021916908373ffffffffffffffffffffffffffffffffffffffff1602179055503373ffffffffffffffffffffffffffffffffffffffff166000809054906101000a900473ffffffffffffffffffffffffffffffffffffffff1673ffffffffffffffffffffffffffffffffffffffff1614151562000203577f0504a20df814c93c7ddd7f77490f6e926f33d1094b561451e480448195c3a91733604051808273ffffffffffffffffffffffffffffffffffffffff1673ffffffffffffffffffffffffffffffffffffffff16815260200191505060405180910390a1600080fd5b600454600560008060009054906101000a900473ffffffffffffffffffffffffffffffffffffffff1673ffffffffffffffffffffffffffffffffffffffff1673ffffffffffffffffffffffffffffffffffffffff168152602001908152602001600020819055503373ffffffffffffffffffffffffffffffffffffffff166000809054906101000a900473ffffffffffffffffffffffffffffffffffffffff1673ffffffffffffffffffffffffffffffffffffffff1614151562000329577f0504a20df814c93c7ddd7f77490f6e926f33d1094b561451e480448195c3a91733604051808273ffffffffffffffffffffffffffffffffffffffff1673ffffffffffffffffffffffffffffffffffffffff16815260200191505060405180910390a1600080fd5b620003de565b828054600181600116156101000203166002900490600052602060002090601f016020900481019282601f106200037257805160ff1916838001178555620003a3565b82800160010185558215620003a3579182015b82811115620003a257825182559160200191906001019062000385565b5b509050620003b29190620003b6565b5090565b620003db91905b80821115620003d7576000816000905550600101620003bd565b5090565b90565b6153c280620003ee6000396000f30060606040526004361061025c576000357c0100000000000000000000000000000000000000000000000000000000900463ffffffff16806306fdde031461026157806308ab4337146102ef57806309d388e51461034957806314562493146103a35780631556445f146103de57806316ef7a5b1461041957806318160ddd146104545780632002c0311461047d57806323b872dd146104a6578063313ce5671461051f578063388fb48d1461054e5780633d6449f8146105a457806347c6e2df146105df578063515b67731461061a5780635662ecc71461065557806359b944c01461067e5780635a8487fd146106d8578063643268c9146107405780636bdc68dd1461076957806370a08231146107a4578063723c421a146107f157806374f7fe931461082c578063788649ea1461086757806379cc6790146108b85780637a0acb56146109125780637acc0b201461097a5780638257826714610a7b578063830327bb14610ada5780638a72ea6a14610b345780638da5cb5b14610bba5780638dff9f9214610c0f57806395d89b4114610c38578063a537795a14610cc6578063a85c38ef14610d01578063a9059cbb14610dc1578063a9e4a32414610e1b578063adca643614610ea1578063af513da614610edc578063b09b506f14610f17578063b1424c3414610f96578063c5bf2fe614610fbf578063d2ed1e8d14610ffa578063d7534fb614611047578063d9485a3014611070578063dfab05d0146110a7578063e816d97f14611140578063f19b484114611191578063f26c159f14611217578063f940933514611268578063ffc5d77d146112a3575b600080fd5b341561026c57600080fd5b6102746112da565b6040518080602001828103825283818151815260200191508051906020019080838360005b838110156102b4578082015181840152602081019050610299565b50505050905090810190601f1680156102e15780820380516001836020036101000a031916815260200191505b509250505060405180910390f35b34156102fa57600080fd5b61032f600480803590602001909190803573ffffffffffffffffffffffffffffffffffffffff16906020019091905050611378565b604051808215151515815260200191505060405180910390f35b341561035457600080fd5b610389600480803590602001909190803573ffffffffffffffffffffffffffffffffffffffff16906020019091905050611641565b604051808215151515815260200191505060405180910390f35b34156103ae57600080fd5b6103c460048080359060200190919050506119c0565b604051808215151515815260200191505060405180910390f35b34156103e957600080fd5b6103ff60048080359060200190919050506119e0565b604051808215151515815260200191505060405180910390f35b341561042457600080fd5b61043a6004808035906020019091905050611a00565b604051808215151515815260200191505060405180910390f35b341561045f57600080fd5b610467611a1f565b6040518082815260200191505060405180910390f35b341561048857600080fd5b610490611a25565b6040518082815260200191505060405180910390f35b34156104b157600080fd5b610505600480803573ffffffffffffffffffffffffffffffffffffffff1690602001909190803573ffffffffffffffffffffffffffffffffffffffff16906020019091908035906020019091905050611a2b565b604051808215151515815260200191505060405180910390f35b341561052a57600080fd5b610532611aff565b604051808260ff1660ff16815260200191505060405180910390f35b341561055957600080fd5b61058e600480803590602001909190803573ffffffffffffffffffffffffffffffffffffffff16906020019091905050611b12565b6040518082815260200191505060405180910390f35b34156105af57600080fd5b6105c56004808035906020019091905050611fed565b604051808215151515815260200191505060405180910390f35b34156105ea57600080fd5b610600600480803590602001909190505061200d565b604051808215151515815260200191505060405180910390f35b341561062557600080fd5b61063b600480803590602001909190505061202d565b604051808215151515815260200191505060405180910390f35b341561066057600080fd5b61066861204d565b6040518082815260200191505060405180910390f35b341561068957600080fd5b6106be600480803590602001909190803573ffffffffffffffffffffffffffffffffffffffff16906020019091905050612053565b604051808215151515815260200191505060405180910390f35b34156106e357600080fd5b61072a600480803573ffffffffffffffffffffffffffffffffffffffff169060200190919080359060200190919080359060200190919080359060200190919050506123d2565b6040518082815260200191505060405180910390f35b341561074b57600080fd5b610753612868565b6040518082815260200191505060405180910390f35b341561077457600080fd5b61078a600480803590602001909190505061286e565b604051808215151515815260200191505060405180910390f35b34156107af57600080fd5b6107db600480803573ffffffffffffffffffffffffffffffffffffffff1690602001909190505061288e565b6040518082815260200191505060405180910390f35b34156107fc57600080fd5b61081260048080359060200190919050506128a6565b604051808215151515815260200191505060405180910390f35b341561083757600080fd5b61084d60048080359060200190919050506128c6565b604051808215151515815260200191505060405180910390f35b341561087257600080fd5b61089e600480803573ffffffffffffffffffffffffffffffffffffffff169060200190919050506128e6565b604051808215151515815260200191505060405180910390f35b34156108c357600080fd5b6108f8600480803573ffffffffffffffffffffffffffffffffffffffff16906020019091908035906020019091905050612a6a565b604051808215151515815260200191505060405180910390f35b341561091d57600080fd5b610964600480803573ffffffffffffffffffffffffffffffffffffffff16906020019091908035906020019091908035906020019091908035906020019091905050612c4a565b6040518082815260200191505060405180910390f35b341561098557600080fd5b61099b6004808035906020019091905050612f7d565b604051808681526020018573ffffffffffffffffffffffffffffffffffffffff1673ffffffffffffffffffffffffffffffffffffffff16815260200180602001848152602001838152602001828103825285818154600181600116156101000203166002900481526020019150805460018160011615610100020316600290048015610a685780601f10610a3d57610100808354040283529160200191610a68565b820191906000526020600020905b815481529060010190602001808311610a4b57829003601f168201915b5050965050505050505060405180910390f35b3415610a8657600080fd5b610ac4600480803590602001909190803573ffffffffffffffffffffffffffffffffffffffff16906020019091908035906020019091905050612fe1565b6040518082815260200191505060405180910390f35b3415610ae557600080fd5b610b1a600480803590602001909190803573ffffffffffffffffffffffffffffffffffffffff169060200190919050506134d9565b604051808215151515815260200191505060405180910390f35b3415610b3f57600080fd5b610b556004808035906020019091905050613a89565b604051808781526020018681526020018573ffffffffffffffffffffffffffffffffffffffff1673ffffffffffffffffffffffffffffffffffffffff168152602001848152602001838152602001828152602001965050505050505060405180910390f35b3415610bc557600080fd5b610bcd613af4565b604051808273ffffffffffffffffffffffffffffffffffffffff1673ffffffffffffffffffffffffffffffffffffffff16815260200191505060405180910390f35b3415610c1a57600080fd5b610c22613b19565b6040518082815260200191505060405180910390f35b3415610c4357600080fd5b610c4b613b1f565b6040518080602001828103825283818151815260200191508051906020019080838360005b83811015610c8b578082015181840152602081019050610c70565b50505050905090810190601f168015610cb85780820380516001836020036101000a031916815260200191505b509250505060405180910390f35b3415610cd157600080fd5b610ce76004808035906020019091905050613bbd565b604051808215151515815260200191505060405180910390f35b3415610d0c57600080fd5b610d226004808035906020019091905050613e9b565b604051808981526020018881526020018781526020018673ffffffffffffffffffffffffffffffffffffffff1673ffffffffffffffffffffffffffffffffffffffff1681526020018573ffffffffffffffffffffffffffffffffffffffff1673ffffffffffffffffffffffffffffffffffffffff1681526020018481526020018381526020018281526020019850505050505050505060405180910390f35b3415610dcc57600080fd5b610e01600480803573ffffffffffffffffffffffffffffffffffffffff16906020019091908035906020019091905050613f32565b604051808215151515815260200191505060405180910390f35b3415610e2657600080fd5b610e3c6004808035906020019091905050613f47565b604051808781526020018681526020018581526020018473ffffffffffffffffffffffffffffffffffffffff1673ffffffffffffffffffffffffffffffffffffffff168152602001838152602001828152602001965050505050505060405180910390f35b3415610eac57600080fd5b610ec26004808035906020019091905050613fb2565b604051808215151515815260200191505060405180910390f35b3415610ee757600080fd5b610efd6004808035906020019091905050613fd2565b604051808215151515815260200191505060405180910390f35b3415610f2257600080fd5b610f386004808035906020019091905050613ff2565b604051808681526020018581526020018473ffffffffffffffffffffffffffffffffffffffff1673ffffffffffffffffffffffffffffffffffffffff1681526020018381526020018281526020019550505050505060405180910390f35b3415610fa157600080fd5b610fa9614057565b6040518082815260200191505060405180910390f35b3415610fca57600080fd5b610fe0600480803590602001909190505061405d565b604051808215151515815260200191505060405180910390f35b341561100557600080fd5b611031600480803573ffffffffffffffffffffffffffffffffffffffff1690602001909190505061407d565b6040518082815260200191505060405180910390f35b341561105257600080fd5b61105a614095565b6040518082815260200191505060405180910390f35b341561107b57600080fd5b611091600480803590602001909190505061409b565b6040518082815260200191505060405180910390f35b34156110b257600080fd5b61112a600480803573ffffffffffffffffffffffffffffffffffffffff1690602001909190803590602001908201803590602001908080601f016020809104026020016040519081016040528093929190818152602001838380828437820191505050505050919080359060200190919050506140b3565b6040518082815260200191505060405180910390f35b341561114b57600080fd5b611177600480803573ffffffffffffffffffffffffffffffffffffffff16906020019091905050614212565b604051808215151515815260200191505060405180910390f35b341561119c57600080fd5b6111b26004808035906020019091905050614232565b604051808781526020018681526020018573ffffffffffffffffffffffffffffffffffffffff1673ffffffffffffffffffffffffffffffffffffffff168152602001848152602001838152602001828152602001965050505050505060405180910390f35b341561122257600080fd5b61124e600480803573ffffffffffffffffffffffffffffffffffffffff1690602001909190505061429d565b604051808215151515815260200191505060405180910390f35b341561127357600080fd5b6112896004808035906020019091905050614421565b604051808215151515815260200191505060405180910390f35b34156112ae57600080fd5b6112c46004808035906020019091905050614732565b6040518082815260200191505060405180910390f35b60018054600181600116156101000203166002900480601f0160208091040260200160405190810160405280929190818152602001828054600181600116156101000203166002900480156113705780601f1061134557610100808354040283529160200191611370565b820191906000526020600020905b81548152906001019060200180831161135357829003601f168201915b505050505081565b60006113826150f2565b3373ffffffffffffffffffffffffffffffffffffffff166000809054906101000a900473ffffffffffffffffffffffffffffffffffffffff1673ffffffffffffffffffffffffffffffffffffffff16141515611440577f0504a20df814c93c7ddd7f77490f6e926f33d1094b561451e480448195c3a91733604051808273ffffffffffffffffffffffffffffffffffffffff1673ffffffffffffffffffffffffffffffffffffffff16815260200191505060405180910390a1600080fd5b601280549050841115151561145457600080fd5b601d600085815260200190815260200160002060009054906101000a900460ff16151561148057600080fd5b6020600085815260200190815260200160002060009054906101000a900460ff161515156114ad57600080fd5b601e600085815260200190815260200160002060009054906101000a900460ff161515156114da57600080fd5b6012848154811015156114e957fe5b906000526020600020906006020160c060405190810160405290816000820154815260200160018201548152602001600282015481526020016003820160009054906101000a900473ffffffffffffffffffffffffffffffffffffffff1673ffffffffffffffffffffffffffffffffffffffff1673ffffffffffffffffffffffffffffffffffffffff1681526020016004820154815260200160058201548152505090508273ffffffffffffffffffffffffffffffffffffffff16816060015173ffffffffffffffffffffffffffffffffffffffff161415156115cb57600080fd5b6001601e60008360000151815260200190815260200160002060006101000a81548160ff0219169083151502179055507f140a8da0dbebf16c74dc48510ab2ec4e623f9cf94cd63bb4873040c82db9c12181600001516040518082815260200191505060405180910390a1600191505092915050565b600061164b61513f565b611653615185565b3373ffffffffffffffffffffffffffffffffffffffff166000809054906101000a900473ffffffffffffffffffffffffffffffffffffffff1673ffffffffffffffffffffffffffffffffffffffff16141515611711577f0504a20df814c93c7ddd7f77490f6e926f33d1094b561451e480448195c3a91733604051808273ffffffffffffffffffffffffffffffffffffffff1673ffffffffffffffffffffffffffffffffffffffff16815260200191505060405180910390a1600080fd5b601180549050851115151561172557600080fd5b601b600086815260200190815260200160002060009054906101000a900460ff1615151561175257600080fd5b60118581548110151561176157fe5b906000526020600020906005020160a0604051908101604052908160008201548152602001600182015481526020016002820160009054906101000a900473ffffffffffffffffffffffffffffffffffffffff1673ffffffffffffffffffffffffffffffffffffffff1673ffffffffffffffffffffffffffffffffffffffff1681526020016003820154815260200160048201548152505091506010826020015181548110151561180e57fe5b906000526020600020906008020161010060405190810160405290816000820154815260200160018201548152602001600282015481526020016003820160009054906101000a900473ffffffffffffffffffffffffffffffffffffffff1673ffffffffffffffffffffffffffffffffffffffff1673ffffffffffffffffffffffffffffffffffffffff1681526020016004820160009054906101000a900473ffffffffffffffffffffffffffffffffffffffff1673ffffffffffffffffffffffffffffffffffffffff1673ffffffffffffffffffffffffffffffffffffffff168152602001600582015481526020016006820154815260200160078201548152505090508373ffffffffffffffffffffffffffffffffffffffff16816080015173ffffffffffffffffffffffffffffffffffffffff1614151561195157600080fd5b6001601b600087815260200190815260200160002060006101000a81548160ff0219169083151502179055507f6e21a5282d24ad706f00b364e098701dd9aef0a493fbe87bbfb4a59dcc2da81c856040518082815260200191505060405180910390a160019250505092915050565b60166020528060005260406000206000915054906101000a900460ff1681565b60186020528060005260406000206000915054906101000a900460ff1681565b602080528060005260406000206000915054906101000a900460ff1681565b60045481565b60095481565b60003373ffffffffffffffffffffffffffffffffffffffff166000809054906101000a900473ffffffffffffffffffffffffffffffffffffffff1673ffffffffffffffffffffffffffffffffffffffff16141515611aeb577f0504a20df814c93c7ddd7f77490f6e926f33d1094b561451e480448195c3a91733604051808273ffffffffffffffffffffffffffffffffffffffff1673ffffffffffffffffffffffffffffffffffffffff16815260200191505060405180910390a1600080fd5b611af6848484614ce6565b90509392505050565b600360009054906101000a900460ff1681565b6000611b1c61513f565b611b24615185565b60003373ffffffffffffffffffffffffffffffffffffffff166000809054906101000a900473ffffffffffffffffffffffffffffffffffffffff1673ffffffffffffffffffffffffffffffffffffffff16141515611be4577f0504a20df814c93c7ddd7f77490f6e926f33d1094b561451e480448195c3a91733604051808273ffffffffffffffffffffffffffffffffffffffff1673ffffffffffffffffffffffffffffffffffffffff16815260200191505060405180910390a1600080fd5b6011805490508611151515611bf857600080fd5b601a600087815260200190815260200160002060009054906101000a900460ff161515611c2457600080fd5b601b600087815260200190815260200160002060009054906101000a900460ff161515611c5057600080fd5b601186815481101515611c5f57fe5b906000526020600020906005020160a0604051908101604052908160008201548152602001600182015481526020016002820160009054906101000a900473ffffffffffffffffffffffffffffffffffffffff1673ffffffffffffffffffffffffffffffffffffffff1673ffffffffffffffffffffffffffffffffffffffff1681526020016003820154815260200160048201548152505092508473ffffffffffffffffffffffffffffffffffffffff16836040015173ffffffffffffffffffffffffffffffffffffffff16141515611d3757600080fd5b60108360200151815481101515611d4a57fe5b906000526020600020906008020161010060405190810160405290816000820154815260200160018201548152602001600282015481526020016003820160009054906101000a900473ffffffffffffffffffffffffffffffffffffffff1673ffffffffffffffffffffffffffffffffffffffff1673ffffffffffffffffffffffffffffffffffffffff1681526020016004820160009054906101000a900473ffffffffffffffffffffffffffffffffffffffff1673ffffffffffffffffffffffffffffffffffffffff1673ffffffffffffffffffffffffffffffffffffffff168152602001600582015481526020016006820154815260200160078201548152505091506001601860008460000151815260200190815260200160002060006101000a81548160ff02191690831515021790555060128080549050815481101515611e9257fe5b90600052602060002090600602019050600c600081548092919060010191905055816000018190555085816001018190555081600001518160020181905550848160030160006101000a81548173ffffffffffffffffffffffffffffffffffffffff021916908373ffffffffffffffffffffffffffffffffffffffff160217905550826060015181600401819055504281600501819055507f4cad8949e83ff7f985f7b5be773ca209f34feae7d09296a60f6fb9c3d4426637816000015487878460040154604051808581526020018481526020018373ffffffffffffffffffffffffffffffffffffffff1673ffffffffffffffffffffffffffffffffffffffff16815260200182815260200194505050505060405180910390a16001601d60008360000154815260200190815260200160002060006101000a81548160ff0219169083151502179055508060000154935050505092915050565b60196020528060005260406000206000915054906101000a900460ff1681565b60156020528060005260406000206000915054906101000a900460ff1681565b601b6020528060005260406000206000915054906101000a900460ff1681565b600a5481565b600061205d61513f565b612065615185565b3373ffffffffffffffffffffffffffffffffffffffff166000809054906101000a900473ffffffffffffffffffffffffffffffffffffffff1673ffffffffffffffffffffffffffffffffffffffff16141515612123577f0504a20df814c93c7ddd7f77490f6e926f33d1094b561451e480448195c3a91733604051808273ffffffffffffffffffffffffffffffffffffffff1673ffffffffffffffffffffffffffffffffffffffff16815260200191505060405180910390a1600080fd5b601180549050851115151561213757600080fd5b601a600086815260200190815260200160002060009054906101000a900460ff1615151561216457600080fd5b60118581548110151561217357fe5b906000526020600020906005020160a0604051908101604052908160008201548152602001600182015481526020016002820160009054906101000a900473ffffffffffffffffffffffffffffffffffffffff1673ffffffffffffffffffffffffffffffffffffffff1673ffffffffffffffffffffffffffffffffffffffff1681526020016003820154815260200160048201548152505091506010826020015181548110151561222057fe5b906000526020600020906008020161010060405190810160405290816000820154815260200160018201548152602001600282015481526020016003820160009054906101000a900473ffffffffffffffffffffffffffffffffffffffff1673ffffffffffffffffffffffffffffffffffffffff1673ffffffffffffffffffffffffffffffffffffffff1681526020016004820160009054906101000a900473ffffffffffffffffffffffffffffffffffffffff1673ffffffffffffffffffffffffffffffffffffffff1673ffffffffffffffffffffffffffffffffffffffff168152602001600582015481526020016006820154815260200160078201548152505090508373ffffffffffffffffffffffffffffffffffffffff16816060015173ffffffffffffffffffffffffffffffffffffffff1614151561236357600080fd5b6001601a600087815260200190815260200160002060006101000a81548160ff0219169083151502179055507f377dfb423247df5b0fbd60f906bb09e1f28874807a5d114ac763c3975531987f856040518082815260200191505060405180910390a160019250505092915050565b60006123dc6151f7565b6000803373ffffffffffffffffffffffffffffffffffffffff166000809054906101000a900473ffffffffffffffffffffffffffffffffffffffff1673ffffffffffffffffffffffffffffffffffffffff1614151561249d577f0504a20df814c93c7ddd7f77490f6e926f33d1094b561451e480448195c3a91733604051808273ffffffffffffffffffffffffffffffffffffffff1673ffffffffffffffffffffffffffffffffffffffff16815260200191505060405180910390a1600080fd5b600e8054905087111515156124b157600080fd5b6013600088815260200190815260200160002060009054906101000a900460ff1615156124dd57600080fd5b600e878154811015156124ec57fe5b906000526020600020906006020160c0604051908101604052908160008201548152602001600182015481526020016002820160009054906101000a900473ffffffffffffffffffffffffffffffffffffffff1673ffffffffffffffffffffffffffffffffffffffff1673ffffffffffffffffffffffffffffffffffffffff16815260200160038201548152602001600482015481526020016005820154815250509250826040015173ffffffffffffffffffffffffffffffffffffffff168873ffffffffffffffffffffffffffffffffffffffff16141515156125cf57600080fd5b6000861115156125de57600080fd5b826060015186111515156125f157600080fd5b60008511151561260057600080fd5b6014600088815260200190815260200160002054851115151561262257600080fd5b848602915081600560008a73ffffffffffffffffffffffffffffffffffffffff1673ffffffffffffffffffffffffffffffffffffffff168152602001908152602001600020541015151561267557600080fd5b6126a1886000809054906101000a900473ffffffffffffffffffffffffffffffffffffffff1684611a2b565b5081601760008a73ffffffffffffffffffffffffffffffffffffffff1673ffffffffffffffffffffffffffffffffffffffff16815260200190815260200160002060008282540192505081905550600f808054905081548110151561270257fe5b9060005260206000209060060201905060096000815480929190600101919050558160000181905550878160020160006101000a81548173ffffffffffffffffffffffffffffffffffffffff021916908373ffffffffffffffffffffffffffffffffffffffff1602179055508681600101819055508581600301819055508481600401819055504281600501819055508460146000898152602001908152602001600020600082825403925050819055506000601660008360000154815260200190815260200160002060006101000a81548160ff0219169083151502179055506000601560008360000154815260200190815260200160002060006101000a81548160ff0219169083151502179055507f91d8429ab45837ebf446fa5b5d9bddef59654a6ad143e171273ca5aa61184657816000015483604051808381526020018281526020019250505060405180910390a180600001549350505050949350505050565b60085481565b601f6020528060005260406000206000915054906101000a900460ff1681565b60056020528060005260406000206000915090505481565b60136020528060005260406000206000915054906101000a900460ff1681565b601c6020528060005260406000206000915054906101000a900460ff1681565b60003373ffffffffffffffffffffffffffffffffffffffff166000809054906101000a900473ffffffffffffffffffffffffffffffffffffffff1673ffffffffffffffffffffffffffffffffffffffff161415156129a6577f0504a20df814c93c7ddd7f77490f6e926f33d1094b561451e480448195c3a91733604051808273ffffffffffffffffffffffffffffffffffffffff1673ffffffffffffffffffffffffffffffffffffffff16815260200191505060405180910390a1600080fd5b6000600660008473ffffffffffffffffffffffffffffffffffffffff1673ffffffffffffffffffffffffffffffffffffffff16815260200190815260200160002060006101000a81548160ff0219169083151502179055507ff915cd9fe234de6e8d3afe7bf2388d35b2b6d48e8c629a24602019bde79c213a82604051808273ffffffffffffffffffffffffffffffffffffffff1673ffffffffffffffffffffffffffffffffffffffff16815260200191505060405180910390a160019050919050565b60003373ffffffffffffffffffffffffffffffffffffffff166000809054906101000a900473ffffffffffffffffffffffffffffffffffffffff1673ffffffffffffffffffffffffffffffffffffffff16141515612b2a577f0504a20df814c93c7ddd7f77490f6e926f33d1094b561451e480448195c3a91733604051808273ffffffffffffffffffffffffffffffffffffffff1673ffffffffffffffffffffffffffffffffffffffff16815260200191505060405180910390a1600080fd5b81600560008573ffffffffffffffffffffffffffffffffffffffff1673ffffffffffffffffffffffffffffffffffffffff1681526020019081526020016000205410151515612b7857600080fd5b81600560008573ffffffffffffffffffffffffffffffffffffffff1673ffffffffffffffffffffffffffffffffffffffff16815260200190815260200160002060008282540392505081905550816004600082825403925050819055507f919f7e2092ffcc9d09f599be18d8152860b0c054df788a33bc549cdd9d0f15b18383604051808373ffffffffffffffffffffffffffffffffffffffff1673ffffffffffffffffffffffffffffffffffffffff1681526020018281526020019250505060405180910390a16001905092915050565b6000612c54615244565b6000600660008873ffffffffffffffffffffffffffffffffffffffff1673ffffffffffffffffffffffffffffffffffffffff16815260200190815260200160002060009054906101000a900460ff16151515612caf57600080fd5b600d805490508611151515612cc357600080fd5b600d86815481101515612cd257fe5b906000526020600020906005020160a06040519081016040529081600082015481526020016001820160009054906101000a900473ffffffffffffffffffffffffffffffffffffffff1673ffffffffffffffffffffffffffffffffffffffff1673ffffffffffffffffffffffffffffffffffffffff168152602001600282018054600181600116156101000203166002900480601f016020809104026020016040519081016040528092919081815260200182805460018160011615610100020316600290048015612de55780601f10612dba57610100808354040283529160200191612de5565b820191906000526020600020905b815481529060010190602001808311612dc857829003601f168201915b505050505081526020016003820154815260200160048201548152505091508673ffffffffffffffffffffffffffffffffffffffff16826020015173ffffffffffffffffffffffffffffffffffffffff16141515612e4257600080fd5b600e8080549050815481101515612e5557fe5b9060005260206000209060060201905060086000815480929190600101919050558160000181905550858160010181905550868160020160006101000a81548173ffffffffffffffffffffffffffffffffffffffff021916908373ffffffffffffffffffffffffffffffffffffffff160217905550848160030181905550838160040181905550428160050181905550836014600083600001548152602001908152602001600020819055506001601360008360000154815260200190815260200160002060006101000a81548160ff0219169083151502179055507fb3d7793b0a28a7adb63609a48581aca35e7b93aa2d28a9e6e458b6a35e1fdf9081600001546040518082815260200191505060405180910390a1806000015492505050949350505050565b600d81815481101515612f8c57fe5b90600052602060002090600502016000915090508060000154908060010160009054906101000a900473ffffffffffffffffffffffffffffffffffffffff169080600201908060030154908060040154905085565b6000612feb615185565b60003373ffffffffffffffffffffffffffffffffffffffff166000809054906101000a900473ffffffffffffffffffffffffffffffffffffffff1673ffffffffffffffffffffffffffffffffffffffff161415156130ab577f0504a20df814c93c7ddd7f77490f6e926f33d1094b561451e480448195c3a91733604051808273ffffffffffffffffffffffffffffffffffffffff1673ffffffffffffffffffffffffffffffffffffffff16815260200191505060405180910390a1600080fd5b60108054905086111515156130bf57600080fd5b6000841115156130ce57600080fd5b83600560008773ffffffffffffffffffffffffffffffffffffffff1673ffffffffffffffffffffffffffffffffffffffff168152602001908152602001600020541015151561311c57600080fd5b60108681548110151561312b57fe5b906000526020600020906008020161010060405190810160405290816000820154815260200160018201548152602001600282015481526020016003820160009054906101000a900473ffffffffffffffffffffffffffffffffffffffff1673ffffffffffffffffffffffffffffffffffffffff1673ffffffffffffffffffffffffffffffffffffffff1681526020016004820160009054906101000a900473ffffffffffffffffffffffffffffffffffffffff1673ffffffffffffffffffffffffffffffffffffffff1673ffffffffffffffffffffffffffffffffffffffff16815260200160058201548152602001600682015481526020016007820154815250509150816080015173ffffffffffffffffffffffffffffffffffffffff168573ffffffffffffffffffffffffffffffffffffffff161415151561326f57600080fd5b816060015173ffffffffffffffffffffffffffffffffffffffff168573ffffffffffffffffffffffffffffffffffffffff16141515156132ae57600080fd5b601180805490508154811015156132c157fe5b90600052602060002090600502019050600b6000815480929190600101919050558160000181905550858160010181905550848160020160006101000a81548173ffffffffffffffffffffffffffffffffffffffff021916908373ffffffffffffffffffffffffffffffffffffffff160217905550838160030181905550428160040181905550613374856000809054906101000a900473ffffffffffffffffffffffffffffffffffffffff1686611a2b565b5083601760008773ffffffffffffffffffffffffffffffffffffffff1673ffffffffffffffffffffffffffffffffffffffff168152602001908152602001600020600082825401925050819055507f9799cf44b1109c2726361c9dda0d33cfcf4655d89c0d231a9a7773cec416536d81600001548686604051808481526020018373ffffffffffffffffffffffffffffffffffffffff1673ffffffffffffffffffffffffffffffffffffffff168152602001828152602001935050505060405180910390a16000601a60008360000154815260200190815260200160002060006101000a81548160ff0219169083151502179055506000601b60008360000154815260200190815260200160002060006101000a81548160ff0219169083151502179055506000601c60008360000154815260200190815260200160002060006101000a81548160ff0219169083151502179055508060000154925050509392505050565b60006134e36150f2565b6134eb615185565b6000803373ffffffffffffffffffffffffffffffffffffffff166000809054906101000a900473ffffffffffffffffffffffffffffffffffffffff1673ffffffffffffffffffffffffffffffffffffffff161415156135ac577f0504a20df814c93c7ddd7f77490f6e926f33d1094b561451e480448195c3a91733604051808273ffffffffffffffffffffffffffffffffffffffff1673ffffffffffffffffffffffffffffffffffffffff16815260200191505060405180910390a1600080fd5b60128054905087111515156135c057600080fd5b601d600088815260200190815260200160002060009054906101000a900460ff1615156135ec57600080fd5b6020600088815260200190815260200160002060009054906101000a900460ff1615151561361957600080fd5b601e600088815260200190815260200160002060009054906101000a900460ff16151561364557600080fd5b601f600088815260200190815260200160002060009054906101000a900460ff1615151561367257600080fd5b60128781548110151561368157fe5b906000526020600020906006020160c060405190810160405290816000820154815260200160018201548152602001600282015481526020016003820160009054906101000a900473ffffffffffffffffffffffffffffffffffffffff1673ffffffffffffffffffffffffffffffffffffffff1673ffffffffffffffffffffffffffffffffffffffff1681526020016004820154815260200160058201548152505093506010846040015181548110151561373857fe5b906000526020600020906008020161010060405190810160405290816000820154815260200160018201548152602001600282015481526020016003820160009054906101000a900473ffffffffffffffffffffffffffffffffffffffff1673ffffffffffffffffffffffffffffffffffffffff1673ffffffffffffffffffffffffffffffffffffffff1681526020016004820160009054906101000a900473ffffffffffffffffffffffffffffffffffffffff1673ffffffffffffffffffffffffffffffffffffffff1673ffffffffffffffffffffffffffffffffffffffff168152602001600582015481526020016006820154815260200160078201548152505092508573ffffffffffffffffffffffffffffffffffffffff16836080015173ffffffffffffffffffffffffffffffffffffffff1614151561387b57600080fd5b6001601f600089815260200190815260200160002060006101000a81548160ff0219169083151502179055506000601d600089815260200190815260200160002060006101000a81548160ff0219169083151502179055506002846080015102915061390d6000809054906101000a900473ffffffffffffffffffffffffffffffffffffffff16856060015184611a2b565b50836080015160176000866060015173ffffffffffffffffffffffffffffffffffffffff1673ffffffffffffffffffffffffffffffffffffffff168152602001908152602001600020600082825403925050819055508260c001518360a001510290506139838360800151846060015183611a2b565b508060176000856080015173ffffffffffffffffffffffffffffffffffffffff1673ffffffffffffffffffffffffffffffffffffffff168152602001908152602001600020600082825403925050819055507f9c01263990613fab6dc76ff544234d1695ff70e60158779a5d935f8160a7798584600001516040518082815260200191505060405180910390a16001601960008560000151815260200190815260200160002060006101000a81548160ff0219169083151502179055507f54e432bca54e5802b66a27d950e398dd4c619f8eb1730140232504f571dc25dc83600001516040518082815260200191505060405180910390a1600194505050505092915050565b600e81815481101515613a9857fe5b90600052602060002090600602016000915090508060000154908060010154908060020160009054906101000a900473ffffffffffffffffffffffffffffffffffffffff16908060030154908060040154908060050154905086565b6000809054906101000a900473ffffffffffffffffffffffffffffffffffffffff1681565b60075481565b60028054600181600116156101000203166002900480601f016020809104026020016040519081016040528092919081815260200182805460018160011615610100020316600290048015613bb55780601f10613b8a57610100808354040283529160200191613bb5565b820191906000526020600020905b815481529060010190602001808311613b9857829003601f168201915b505050505081565b6000613bc761513f565b3373ffffffffffffffffffffffffffffffffffffffff166000809054906101000a900473ffffffffffffffffffffffffffffffffffffffff1673ffffffffffffffffffffffffffffffffffffffff16141515613c85577f0504a20df814c93c7ddd7f77490f6e926f33d1094b561451e480448195c3a91733604051808273ffffffffffffffffffffffffffffffffffffffff1673ffffffffffffffffffffffffffffffffffffffff16815260200191505060405180910390a1600080fd5b6011805490508311151515613c9957600080fd5b601a600084815260200190815260200160002060009054906101000a900460ff16151515613cc657600080fd5b601b600084815260200190815260200160002060009054906101000a900460ff16151515613cf357600080fd5b601183815481101515613d0257fe5b906000526020600020906005020160a0604051908101604052908160008201548152602001600182015481526020016002820160009054906101000a900473ffffffffffffffffffffffffffffffffffffffff1673ffffffffffffffffffffffffffffffffffffffff1673ffffffffffffffffffffffffffffffffffffffff1681526020016003820154815260200160048201548152505090506001601c60008360000151815260200190815260200160002060006101000a81548160ff021916908315150217905550613e006000809054906101000a900473ffffffffffffffffffffffffffffffffffffffff1682604001518360600151611a2b565b50806060015160176000836040015173ffffffffffffffffffffffffffffffffffffffff1673ffffffffffffffffffffffffffffffffffffffff168152602001908152602001600020600082825401925050819055507f2215f8e17c9ba87dc3be3b9d0b67e728df708ec0c54440cf77913620301ee84781600001516040518082815260200191505060405180910390a16001915050919050565b601081815481101515613eaa57fe5b90600052602060002090600802016000915090508060000154908060010154908060020154908060030160009054906101000a900473ffffffffffffffffffffffffffffffffffffffff16908060040160009054906101000a900473ffffffffffffffffffffffffffffffffffffffff16908060050154908060060154908060070154905088565b6000613f3f338484614ce6565b905092915050565b601281815481101515613f5657fe5b90600052602060002090600602016000915090508060000154908060010154908060020154908060030160009054906101000a900473ffffffffffffffffffffffffffffffffffffffff16908060040154908060050154905086565b601d6020528060005260406000206000915054906101000a900460ff1681565b601a6020528060005260406000206000915054906101000a900460ff1681565b60118181548110151561400157fe5b90600052602060002090600502016000915090508060000154908060010154908060020160009054906101000a900473ffffffffffffffffffffffffffffffffffffffff16908060030154908060040154905085565b600c5481565b601e6020528060005260406000206000915054906101000a900460ff1681565b60176020528060005260406000206000915090505481565b600b5481565b60146020528060005260406000206000915090505481565b600080600660008673ffffffffffffffffffffffffffffffffffffffff1673ffffffffffffffffffffffffffffffffffffffff16815260200190815260200160002060009054906101000a900460ff1615151561410f57600080fd5b60008311151561411e57600080fd5b600d808054905081548110151561413157fe5b9060005260206000209060050201905060076000815480929190600101919050558160000181905550848160010160006101000a81548173ffffffffffffffffffffffffffffffffffffffff021916908373ffffffffffffffffffffffffffffffffffffffff160217905550838160020190805190602001906141b5929190615290565b508281600301819055504281600401819055507fbcc0e36116309da282dcf13bde248ef63930f4114b68999c8570a86ffb3ab30581600001546040518082815260200191505060405180910390a180600001549150509392505050565b60066020528060005260406000206000915054906101000a900460ff1681565b600f8181548110151561424157fe5b90600052602060002090600602016000915090508060000154908060010154908060020160009054906101000a900473ffffffffffffffffffffffffffffffffffffffff16908060030154908060040154908060050154905086565b60003373ffffffffffffffffffffffffffffffffffffffff166000809054906101000a900473ffffffffffffffffffffffffffffffffffffffff1673ffffffffffffffffffffffffffffffffffffffff1614151561435d577f0504a20df814c93c7ddd7f77490f6e926f33d1094b561451e480448195c3a91733604051808273ffffffffffffffffffffffffffffffffffffffff1673ffffffffffffffffffffffffffffffffffffffff16815260200191505060405180910390a1600080fd5b6001600660008473ffffffffffffffffffffffffffffffffffffffff1673ffffffffffffffffffffffffffffffffffffffff16815260200190815260200160002060006101000a81548160ff0219169083151502179055507f4f2a367e694e71282f29ab5eaa04c4c0be45ac5bf2ca74fb67068b98bdc2887d82604051808273ffffffffffffffffffffffffffffffffffffffff1673ffffffffffffffffffffffffffffffffffffffff16815260200191505060405180910390a160019050919050565b600061442b615310565b60003373ffffffffffffffffffffffffffffffffffffffff166000809054906101000a900473ffffffffffffffffffffffffffffffffffffffff1673ffffffffffffffffffffffffffffffffffffffff161415156144eb577f0504a20df814c93c7ddd7f77490f6e926f33d1094b561451e480448195c3a91733604051808273ffffffffffffffffffffffffffffffffffffffff1673ffffffffffffffffffffffffffffffffffffffff16815260200191505060405180910390a1600080fd5b600f8054905084111515156144ff57600080fd5b6016600085815260200190815260200160002060009054906101000a900460ff1615151561452c57600080fd5b6015600085815260200190815260200160002060009054906101000a900460ff1615151561455957600080fd5b600f8481548110151561456857fe5b906000526020600020906006020160c0604051908101604052908160008201548152602001600182015481526020016002820160009054906101000a900473ffffffffffffffffffffffffffffffffffffffff1673ffffffffffffffffffffffffffffffffffffffff1673ffffffffffffffffffffffffffffffffffffffff16815260200160038201548152602001600482015481526020016005820154815250509150816080015182606001510290506146496000809054906101000a900473ffffffffffffffffffffffffffffffffffffffff16836040015183611a2b565b508060176000846040015173ffffffffffffffffffffffffffffffffffffffff1673ffffffffffffffffffffffffffffffffffffffff1681526020019081526020016000206000828254039250508190555060016016600086815260200190815260200160002060006101000a81548160ff02191690831515021790555081608001516014600084602001518152602001908152602001600020600082825401925050819055507fd5fd0292fba4b4f7f0b5640930bb658c77bb28b5f2910c83d1b98048ea2ae24c846040518082815260200191505060405180910390a1600192505050919050565b600061473c615310565b6147446151f7565b61474c615185565b60003373ffffffffffffffffffffffffffffffffffffffff166000809054906101000a900473ffffffffffffffffffffffffffffffffffffffff1673ffffffffffffffffffffffffffffffffffffffff1614151561480c577f0504a20df814c93c7ddd7f77490f6e926f33d1094b561451e480448195c3a91733604051808273ffffffffffffffffffffffffffffffffffffffff1673ffffffffffffffffffffffffffffffffffffffff16815260200191505060405180910390a1600080fd5b600f80549050861115151561482057600080fd5b6016600087815260200190815260200160002060009054906101000a900460ff1615151561484d57600080fd5b6015600087815260200190815260200160002060009054906101000a900460ff1615151561487a57600080fd5b600f8681548110151561488957fe5b906000526020600020906006020160c0604051908101604052908160008201548152602001600182015481526020016002820160009054906101000a900473ffffffffffffffffffffffffffffffffffffffff1673ffffffffffffffffffffffffffffffffffffffff1673ffffffffffffffffffffffffffffffffffffffff16815260200160038201548152602001600482015481526020016005820154815250509350600e846020015181548110151561494057fe5b906000526020600020906006020160c0604051908101604052908160008201548152602001600182015481526020016002820160009054906101000a900473ffffffffffffffffffffffffffffffffffffffff1673ffffffffffffffffffffffffffffffffffffffff1673ffffffffffffffffffffffffffffffffffffffff16815260200160038201548152602001600482015481526020016005820154815250509250836080015160146000856000015181526020019081526020016000205410151515614a0e57600080fd5b60016015600088815260200190815260200160002060006101000a81548160ff02191690831515021790555060108080549050815481101515614a4d57fe5b906000526020600020906008020161010060405190810160405290816000820154815260200160018201548152602001600282015481526020016003820160009054906101000a900473ffffffffffffffffffffffffffffffffffffffff1673ffffffffffffffffffffffffffffffffffffffff1673ffffffffffffffffffffffffffffffffffffffff1681526020016004820160009054906101000a900473ffffffffffffffffffffffffffffffffffffffff1673ffffffffffffffffffffffffffffffffffffffff1673ffffffffffffffffffffffffffffffffffffffff16815260200160058201548152602001600682015481526020016007820154815250509150600a600081548092919060010191905055826000018181525050836000015182602001818152505082600001518260400181815250508360400151826080019073ffffffffffffffffffffffffffffffffffffffff16908173ffffffffffffffffffffffffffffffffffffffff16815250508260400151826060019073ffffffffffffffffffffffffffffffffffffffff16908173ffffffffffffffffffffffffffffffffffffffff168152505083606001518260a001818152505083608001518260c0018181525050428260e00181815250508160c001518260a001510290507f0d21bc8facc2c6927297488083e98a19f173097d2354d6c27903744d36256a15826000015182604051808381526020018281526020019250505060405180910390a16000601860008460000151815260200190815260200160002060006101000a81548160ff0219169083151502179055506000601960008460000151815260200190815260200160002060006101000a81548160ff0219169083151502179055508160000151945050505050919050565b60008060008473ffffffffffffffffffffffffffffffffffffffff1614151515614d0f57600080fd5b600660008673ffffffffffffffffffffffffffffffffffffffff1673ffffffffffffffffffffffffffffffffffffffff16815260200190815260200160002060009054906101000a900460ff16151515614d6857600080fd5b600660008573ffffffffffffffffffffffffffffffffffffffff1673ffffffffffffffffffffffffffffffffffffffff16815260200190815260200160002060009054906101000a900460ff16151515614dc157600080fd5b82600560008773ffffffffffffffffffffffffffffffffffffffff1673ffffffffffffffffffffffffffffffffffffffff1681526020019081526020016000205410151515614e0f57600080fd5b600560008573ffffffffffffffffffffffffffffffffffffffff1673ffffffffffffffffffffffffffffffffffffffff1681526020019081526020016000205483600560008773ffffffffffffffffffffffffffffffffffffffff1673ffffffffffffffffffffffffffffffffffffffff1681526020019081526020016000205401111515614e9d57600080fd5b600560008573ffffffffffffffffffffffffffffffffffffffff1673ffffffffffffffffffffffffffffffffffffffff16815260200190815260200160002054600560008773ffffffffffffffffffffffffffffffffffffffff1673ffffffffffffffffffffffffffffffffffffffff1681526020019081526020016000205401905082600560008773ffffffffffffffffffffffffffffffffffffffff1673ffffffffffffffffffffffffffffffffffffffff1681526020019081526020016000206000828254039250508190555082600560008673ffffffffffffffffffffffffffffffffffffffff1673ffffffffffffffffffffffffffffffffffffffff168152602001908152602001600020600082825401925050819055507fddf252ad1be2c89b69c2b068fc378daa952ba7f163c4a11628f55a4df523b3ef858585604051808473ffffffffffffffffffffffffffffffffffffffff1673ffffffffffffffffffffffffffffffffffffffff1681526020018373ffffffffffffffffffffffffffffffffffffffff1673ffffffffffffffffffffffffffffffffffffffff168152602001828152602001935050505060405180910390a1828101600560008673ffffffffffffffffffffffffffffffffffffffff1673ffffffffffffffffffffffffffffffffffffffff16815260200190815260200160002054600560008873ffffffffffffffffffffffffffffffffffffffff1673ffffffffffffffffffffffffffffffffffffffff16815260200190815260200160002054011415156150e657fe5b60019150509392505050565b60c060405190810160405280600081526020016000815260200160008152602001600073ffffffffffffffffffffffffffffffffffffffff16815260200160008152602001600081525090565b60a0604051908101604052806000815260200160008152602001600073ffffffffffffffffffffffffffffffffffffffff16815260200160008152602001600081525090565b61010060405190810160405280600081526020016000815260200160008152602001600073ffffffffffffffffffffffffffffffffffffffff168152602001600073ffffffffffffffffffffffffffffffffffffffff1681526020016000815260200160008152602001600081525090565b60c0604051908101604052806000815260200160008152602001600073ffffffffffffffffffffffffffffffffffffffff1681526020016000815260200160008152602001600081525090565b60a06040519081016040528060008152602001600073ffffffffffffffffffffffffffffffffffffffff16815260200161527c61535d565b815260200160008152602001600081525090565b828054600181600116156101000203166002900490600052602060002090601f016020900481019282601f106152d157805160ff19168380011785556152ff565b828001600101855582156152ff579182015b828111156152fe5782518255916020019190600101906152e3565b5b50905061530c9190615371565b5090565b60c0604051908101604052806000815260200160008152602001600073ffffffffffffffffffffffffffffffffffffffff1681526020016000815260200160008152602001600081525090565b602060405190810160405280600081525090565b61539391905b8082111561538f576000816000905550600101615377565b5090565b905600a165627a7a72305820cc4deaf46e5789779941cd4e3ecda93d8c21660d3cd2eee5698fdfc9e77044c30029",
  "source": "pragma solidity ^0.4.4;\n\nimport \"./TokenIssuer.sol\";\n\ncontract Marketplace is TokenIssuer {\n\n  struct Product {\n    uint id;\n    address owner;\n    string name;\n    uint256 unitPrice;\n    uint timestamp;\n  }\n\n  struct Offer {\n    uint id;\n    uint productId;\n    address seller;\n    uint256 proposedUnitPrice;\n    uint quantity;\n    uint timestamp;\n  }\n\n  struct OfferBid {\n    uint id;\n    uint offerId;\n    address bider;\n    uint256 proposedUnitPrice;\n    uint quantity;\n    uint timestamp;\n  }\n\n  struct Order {\n    uint id;\n    uint offerBidId;\n    uint offerId;\n    address seller;\n    address buyer;\n    uint256 agreedUnitPrice;\n    uint quantity;\n    uint timestamp;\n  }\n\n  struct OrderCourierBid {\n    uint id;\n    uint orderId;\n    address courier;\n    uint256 price;\n    uint timestamp;\n  }\n\n  struct Delivery {\n    uint id;\n    uint orderCourierBidId;\n    uint orderId;\n    address courier;\n    uint256 price;\n    uint timestamp;\n  }\n\n  uint public lastProductId = 0;\n  uint public lastOfferId = 0;\n  uint public lastOfferBidId = 0;\n  uint public lastOrderId = 0;\n  uint public lastOrderCourierBidId = 0; \n  uint public lastDeliveryId = 0;\n\n  Product[] public products;\n  Offer[] public offers;\n  OfferBid[] public offersBid;\n  Order[] public orders;\n  OrderCourierBid[] public orderCourierBids;\n  Delivery[] public deliveries;\n\n  event ProductRegistered(uint id);\n  event OfferRegistered(uint id);\n  event OfferBidRegistered(uint id, uint256 totalValue);\n  event OrderRegistered(uint id, uint256 totalValue);\n  event OrderCourierBidRegistered(uint id, address courier, uint256 price);\n  event DeliveryRegistered(uint id, uint orderCourierBidId, address courier, uint256 price);\n\n  event OfferBidRefused(uint id);\n\n  event OrderCourierBidRefused(uint id);\n\n  event OrderCourierBidAcceptedBySeller(uint id);\n  event OrderCourierBidAcceptedByBuyer(uint id);\n\n  event DeliveryConfirmedByCourier(uint id);\n  event DeliveryConfirmedByBuyer(uint id);\n\n  event OrderFinished(uint id);\n\n  mapping (uint => bool) public isOfferStanding;\n\n  mapping (uint => uint) public offerAvailableQuantity;\n\n  mapping (uint => bool) public isOfferBidAccepted;\n  mapping (uint => bool) public isOfferBidRefused;\n\n  mapping (address => uint256) public tokensAtStake;\n\n  mapping (uint => bool) public orderHasCourier;\n\n  mapping (uint => bool) public orderHasFinished;\n\n  mapping (uint => bool) public orderCourierBidAcceptedBySeller;\n  mapping (uint => bool) public orderCourierBidAcceptedByBuyer;\n\n  mapping (uint => bool) public orderCourierBidRefused;\n\n  mapping (uint => bool) public isDeliveryPending;\n\n  mapping (uint => bool) public deliveryConfirmedByCourier;\n  mapping (uint => bool) public deliveryConfirmedByBuyer;\n\n  mapping (uint => bool) public isDeliveryCancelled;\n\n  function Marketplace() onlyOwner public {\n    //\n  }\n\n  function registerProductFrom(address owner, string name, uint256 unitPrice) public returns (uint) {\n    require(!isAccountFrozen[owner]);\n    require(unitPrice > 0);\n\n    Product storage product = products[products.length];\n\n    product.id = lastProductId++;\n    product.owner = owner;\n    product.name = name;\n    product.unitPrice = unitPrice;\n    product.timestamp = block.timestamp;\n\n    ProductRegistered(product.id);\n\n    return product.id;\n  }\n\n  function registerOfferFrom(address seller, uint productId, uint256 proposedUnitPrice, uint quantity) public returns (uint) {\n    require(!isAccountFrozen[seller]);\n    require(productId <= products.length);\n    \n    Product memory product = products[productId];\n\n    require(product.owner == seller);\n\n    Offer storage offer = offers[offers.length];\n\n    offer.id = lastOfferId++;\n    offer.productId = productId;\n    offer.seller = seller;\n    offer.proposedUnitPrice = proposedUnitPrice;\n    offer.quantity = quantity;\n    offer.timestamp = block.timestamp;\n\n    offerAvailableQuantity[offer.id] = quantity;\n    isOfferStanding[offer.id] = true;\n\n    OfferRegistered(offer.id);\n\n    return offer.id;\n  }\n\n  function registerOfferBidFrom(address bider, uint offerId, uint256 proposedUnitPrice, uint quantity) onlyOwner public returns (uint) {\n    require(offerId <= offers.length);\n    require(isOfferStanding[offerId]);\n\n    Offer memory offer = offers[offerId];\n\n    require(bider != offer.seller);\n\n    require(proposedUnitPrice > 0);\n    require(proposedUnitPrice <= offer.proposedUnitPrice);\n\n    require(quantity > 0);\n    require(quantity <= offerAvailableQuantity[offerId]);\n\n    uint256 totalValue = proposedUnitPrice * quantity;\n\n    require(balanceOf[bider] >= totalValue);\n\n    // Bider puts its money on stake so it cant start bidding withou the funds for it\n    transferFrom(bider, owner, totalValue);\n\n    tokensAtStake[bider] += totalValue; \n\n    OfferBid storage offerBid = offersBid[offersBid.length];\n\n    offerBid.id = lastOfferBidId++;\n    offerBid.bider = bider;\n    offerBid.offerId = offerId;\n    offerBid.proposedUnitPrice = proposedUnitPrice;\n    offerBid.quantity = quantity;\n    offerBid.timestamp = block.timestamp;\n\n    offerAvailableQuantity[offerId] -= quantity;\n\n    isOfferBidRefused[offerBid.id] = false;\n    isOfferBidAccepted[offerBid.id] = false;\n\n    OfferBidRegistered(offerBid.id, totalValue);\n\n    return offerBid.id;\n  }\n\n  function refuseOfferBid(uint offerBidId) onlyOwner public returns (bool) {\n    require(offerBidId <= offersBid.length);\n\n    require(!isOfferBidRefused[offerBidId]);\n    require(!isOfferBidAccepted[offerBidId]);\n\n    OfferBid memory offerBid = offersBid[offerBidId];\n\n    uint256 totalValue = offerBid.proposedUnitPrice * offerBid.quantity;\n\n    transferFrom(owner, offerBid.bider, totalValue);\n\n    tokensAtStake[offerBid.bider] -= totalValue;\n\n    isOfferBidRefused[offerBidId] = true;\n\n    offerAvailableQuantity[offerBid.offerId] += offerBid.quantity;\n\n    OfferBidRefused(offerBidId);\n\n    return true;\n  }\n\n  function acceptOfferBid(uint offerBidId) onlyOwner public returns (uint) {\n    require(offerBidId <= offersBid.length);\n    \n    require(!isOfferBidRefused[offerBidId]);\n    require(!isOfferBidAccepted[offerBidId]);\n\n    OfferBid memory offerBid = offersBid[offerBidId];\n    Offer memory offer = offers[offerBid.offerId];\n\n    require(offerAvailableQuantity[offer.id] >= offerBid.quantity);\n\n    isOfferBidAccepted[offerBidId] = true;\n\n    Order memory order = orders[orders.length];\n\n    order.id = lastOrderId++;\n    order.offerBidId = offerBid.id;\n    order.offerId = offer.id;\n    order.buyer = offerBid.bider;\n    order.seller = offer.seller;\n    order.agreedUnitPrice = offerBid.proposedUnitPrice;\n    order.quantity = offerBid.quantity;\n    order.timestamp = block.timestamp;\n\n    uint256 totalValue = order.agreedUnitPrice * order.quantity;\n\n    OrderRegistered(order.id, totalValue);\n\n    orderHasCourier[order.id] = false;\n\n    orderHasFinished[order.id] = false;\n\n    return order.id;\n  }\n\n  function registerOrderCourierBid(uint orderId, address courier, uint256 price) onlyOwner public returns (uint) {\n    require(orderId <= orders.length);\n\n    require(price > 0);\n\n    require(balanceOf[courier] >= price);\n\n    Order memory order = orders[orderId];\n\n    require(courier != order.buyer);\n    require(courier != order.seller);\n\n    OrderCourierBid storage orderCourierBid = orderCourierBids[orderCourierBids.length];\n\n    orderCourierBid.id = lastOrderCourierBidId++;\n    orderCourierBid.orderId = orderId;\n    orderCourierBid.courier = courier;\n    orderCourierBid.price = price;\n    orderCourierBid.timestamp = block.timestamp;\n\n    transferFrom(courier, owner, price);\n\n    tokensAtStake[courier] += price;\n\n    OrderCourierBidRegistered(orderCourierBid.id, courier, price);\n\n    orderCourierBidAcceptedBySeller[orderCourierBid.id] = false;\n    orderCourierBidAcceptedByBuyer[orderCourierBid.id] = false;\n\n    orderCourierBidRefused[orderCourierBid.id] = false;\n\n    return orderCourierBid.id;\n  }\n\n  function refuseOrderCourierBid(uint orderCourierBidId) onlyOwner public returns (bool) {\n    require(orderCourierBidId <= orderCourierBids.length);\n\n    require(!orderCourierBidAcceptedBySeller[orderCourierBidId]);\n    require(!orderCourierBidAcceptedByBuyer[orderCourierBidId]);\n\n    OrderCourierBid memory orderCourierBid = orderCourierBids[orderCourierBidId]; \n\n    orderCourierBidRefused[orderCourierBid.id] = true;\n\n    transferFrom(owner, orderCourierBid.courier, orderCourierBid.price);\n\n    tokensAtStake[orderCourierBid.courier] += orderCourierBid.price;\n\n    OrderCourierBidRefused(orderCourierBid.id);\n\n    return true;\n  }\n\n  function acceptOrderCourierBidBySeller(uint orderCourierBidId, address seller) onlyOwner public returns (bool) {\n    require(orderCourierBidId <= orderCourierBids.length);\n\n    require(!orderCourierBidAcceptedBySeller[orderCourierBidId]);\n\n    OrderCourierBid memory orderCourierBid = orderCourierBids[orderCourierBidId]; \n    \n    Order memory order = orders[orderCourierBid.orderId];\n\n    require(order.seller == seller);\n\n    orderCourierBidAcceptedBySeller[orderCourierBidId] = true;\n\n    OrderCourierBidAcceptedBySeller(orderCourierBidId);\n\n    return true;\n  }\n\n  function acceptOrderCourierBidByBuyer(uint orderCourierBidId, address buyer) onlyOwner public returns (bool) {\n    require(orderCourierBidId <= orderCourierBids.length);\n\n    require(!orderCourierBidAcceptedByBuyer[orderCourierBidId]);\n\n    OrderCourierBid memory orderCourierBid = orderCourierBids[orderCourierBidId]; \n    \n    Order memory order = orders[orderCourierBid.orderId];\n\n    require(order.buyer == buyer);\n\n    orderCourierBidAcceptedByBuyer[orderCourierBidId] = true;\n\n    OrderCourierBidAcceptedByBuyer(orderCourierBidId);\n\n    return true;\n  }\n\n  function acceptOrderCourierBidByCourier(uint orderCourierBidId, address courier) onlyOwner public returns (uint) {\n    require(orderCourierBidId <= orderCourierBids.length);\n\n    require(orderCourierBidAcceptedBySeller[orderCourierBidId]);\n    require(orderCourierBidAcceptedByBuyer[orderCourierBidId]);\n\n    OrderCourierBid memory orderCourierBid = orderCourierBids[orderCourierBidId]; \n\n    require(orderCourierBid.courier == courier);\n\n    Order memory order = orders[orderCourierBid.orderId];\n    \n    orderHasCourier[order.id] = true;\n\n    Delivery storage delivery = deliveries[deliveries.length];\n\n    delivery.id = lastDeliveryId++;\n    delivery.orderCourierBidId = orderCourierBidId;\n    delivery.orderId = order.id;\n    delivery.courier = courier;\n    delivery.price = orderCourierBid.price;\n    delivery.timestamp = block.timestamp;\n\n    DeliveryRegistered(delivery.id, orderCourierBidId, courier, delivery.price);\n\n    isDeliveryPending[delivery.id] = true;\n\n    return delivery.id;\n  }\n\n  function confirmDeliveryByCourier(uint deliveryId, address courier) onlyOwner public returns (bool) {\n    require(deliveryId <= deliveries.length);\n\n    require(isDeliveryPending[deliveryId]);\n    require(!isDeliveryCancelled[deliveryId]);\n\n    require(!deliveryConfirmedByCourier[deliveryId]);\n\n    Delivery memory delivery = deliveries[deliveryId];\n\n    require(delivery.courier == courier);\n\n    deliveryConfirmedByCourier[delivery.id] = true;\n\n    DeliveryConfirmedByCourier(delivery.id);\n\n    return true;\n  }\n\n  function confirmDeliveryByBuyer(uint deliveryId, address buyer) onlyOwner public returns (bool) {\n    require(deliveryId <= deliveries.length);\n\n    require(isDeliveryPending[deliveryId]);\n    require(!isDeliveryCancelled[deliveryId]);\n\n    require(deliveryConfirmedByCourier[deliveryId]);\n\n    require(!deliveryConfirmedByBuyer[deliveryId]);\n\n    Delivery memory delivery = deliveries[deliveryId];\n\n    Order memory order = orders[delivery.orderId];\n\n    require(order.buyer == buyer);\n\n    deliveryConfirmedByBuyer[deliveryId] = true;\n    isDeliveryPending[deliveryId] = false;\n\n    uint256 deliveryReward = delivery.price * 2;\n\n    transferFrom(owner, delivery.courier, deliveryReward);\n\n    tokensAtStake[delivery.courier] -= delivery.price;\n\n    uint256 orderTotalValue = order.agreedUnitPrice * order.quantity;\n\n    transferFrom(order.buyer, order.seller, orderTotalValue);\n\n    tokensAtStake[order.buyer] -= orderTotalValue;\n\n    DeliveryConfirmedByBuyer(delivery.id);\n\n    orderHasFinished[order.id] = true;\n\n    OrderFinished(order.id);\n\n    return true;\n  }\n\n}\n",
  "sourcePath": "/home/diego/Code/eth_marketplace/contracts/Marketplace.sol",
  "compiler": {
    "name": "solc",
    "version": "0.4.19+commit.c4cbbb05.Emscripten.clang"
  },
  "schemaVersion": "1.0.1",
  "updatedAt": "2018-03-27T20:10:52.962Z"
}