{
  "contractName": "Owned",
  "abi": [
    {
      "constant": true,
      "inputs": [],
      "name": "owner",
      "outputs": [
        {
          "name": "",
          "type": "address"
        }
      ],
      "payable": false,
      "stateMutability": "view",
      "type": "function"
    },
    {
      "inputs": [],
      "payable": false,
      "stateMutability": "nonpayable",
      "type": "constructor"
    },
    {
      "anonymous": false,
      "inputs": [
        {
          "indexed": false,
          "name": "atemptee",
          "type": "address"
        }
      ],
      "name": "AccessDenied",
      "type": "event"
    }
  ],
  "bytecode": "0x6060604052341561000f57600080fd5b336000806101000a81548173ffffffffffffffffffffffffffffffffffffffff021916908373ffffffffffffffffffffffffffffffffffffffff16021790555060e78061005d6000396000f300606060405260043610603f576000357c0100000000000000000000000000000000000000000000000000000000900463ffffffff1680638da5cb5b146044575b600080fd5b3415604e57600080fd5b60546096565b604051808273ffffffffffffffffffffffffffffffffffffffff1673ffffffffffffffffffffffffffffffffffffffff16815260200191505060405180910390f35b6000809054906101000a900473ffffffffffffffffffffffffffffffffffffffff16815600a165627a7a72305820cdff2d57b5beb1df6b990068aabf1ad7d81765a6296ed20a2b74d8e7bc3914990029",
  "source": "pragma solidity ^0.4.4;\n\ncontract Owned {\n  address public owner;\n\n  event AccessDenied(address atemptee);\n\n  function Owned() public {\n    owner = msg.sender;\n  }\n\n  modifier onlyOwner() {\n    if (owner != msg.sender) {\n      AccessDenied(msg.sender);\n      revert();\n    }\n    _;\n  }\n}\n",
  "sourcePath": "/home/diego/Code/eth_marketplace/contracts/Owned.sol",
  "compiler": {
    "name": "solc",
    "version": "0.4.19+commit.c4cbbb05.Emscripten.clang"
  },
  "schemaVersion": "1.0.1",
  "updatedAt": "2018-03-27T20:10:52.953Z"
}